{
  "_format": "hh-sol-artifact-1",
  "contractName": "GameToken",
  "sourceName": "contracts/GameToken.sol",
  "abi": [
    {
      "inputs": [],
      "stateMutability": "nonpayable",
      "type": "constructor"
    },
    {
      "anonymous": false,
      "inputs": [
        {
          "indexed": true,
          "internalType": "address",
          "name": "owner",
          "type": "address"
        },
        {
          "indexed": true,
          "internalType": "address",
          "name": "spender",
          "type": "address"
        },
        {
          "indexed": false,
          "internalType": "uint256",
          "name": "value",
          "type": "uint256"
        }
      ],
      "name": "Approval",
      "type": "event"
    },
    {
      "anonymous": false,
      "inputs": [
        {
          "indexed": true,
          "internalType": "address",
          "name": "to",
          "type": "address"
        },
        {
          "indexed": false,
          "internalType": "uint256",
          "name": "amount",
          "type": "uint256"
        }
      ],
      "name": "Minted",
      "type": "event"
    },
    {
      "anonymous": false,
      "inputs": [
        {
          "indexed": true,
          "internalType": "address",
          "name": "previousOwner",
          "type": "address"
        },
        {
          "indexed": true,
          "internalType": "address",
          "name": "newOwner",
          "type": "address"
        }
      ],
      "name": "OwnershipTransferred",
      "type": "event"
    },
    {
      "anonymous": false,
      "inputs": [
        {
          "indexed": true,
          "internalType": "address",
          "name": "from",
          "type": "address"
        },
        {
          "indexed": true,
          "internalType": "address",
          "name": "to",
          "type": "address"
        },
        {
          "indexed": false,
          "internalType": "uint256",
          "name": "value",
          "type": "uint256"
        }
      ],
      "name": "Transfer",
      "type": "event"
    },
    {
      "inputs": [
        {
          "internalType": "address",
          "name": "owner",
          "type": "address"
        },
        {
          "internalType": "address",
          "name": "spender",
          "type": "address"
        }
      ],
      "name": "allowance",
      "outputs": [
        {
          "internalType": "uint256",
          "name": "",
          "type": "uint256"
        }
      ],
      "stateMutability": "view",
      "type": "function"
    },
    {
      "inputs": [
        {
          "internalType": "address",
          "name": "spender",
          "type": "address"
        },
        {
          "internalType": "uint256",
          "name": "amount",
          "type": "uint256"
        }
      ],
      "name": "approve",
      "outputs": [
        {
          "internalType": "bool",
          "name": "",
          "type": "bool"
        }
      ],
      "stateMutability": "nonpayable",
      "type": "function"
    },
    {
      "inputs": [
        {
          "internalType": "address",
          "name": "account",
          "type": "address"
        }
      ],
      "name": "balanceOf",
      "outputs": [
        {
          "internalType": "uint256",
          "name": "",
          "type": "uint256"
        }
      ],
      "stateMutability": "view",
      "type": "function"
    },
    {
      "inputs": [],
      "name": "decimals",
      "outputs": [
        {
          "internalType": "uint8",
          "name": "",
          "type": "uint8"
        }
      ],
      "stateMutability": "pure",
      "type": "function"
    },
    {
      "inputs": [
        {
          "internalType": "address",
          "name": "spender",
          "type": "address"
        },
        {
          "internalType": "uint256",
          "name": "subtractedValue",
          "type": "uint256"
        }
      ],
      "name": "decreaseAllowance",
      "outputs": [
        {
          "internalType": "bool",
          "name": "",
          "type": "bool"
        }
      ],
      "stateMutability": "nonpayable",
      "type": "function"
    },
    {
      "inputs": [
        {
          "internalType": "address",
          "name": "spender",
          "type": "address"
        },
        {
          "internalType": "uint256",
          "name": "addedValue",
          "type": "uint256"
        }
      ],
      "name": "increaseAllowance",
      "outputs": [
        {
          "internalType": "bool",
          "name": "",
          "type": "bool"
        }
      ],
      "stateMutability": "nonpayable",
      "type": "function"
    },
    {
      "inputs": [
        {
          "internalType": "address",
          "name": "to",
          "type": "address"
        },
        {
          "internalType": "uint256",
          "name": "amount",
          "type": "uint256"
        }
      ],
      "name": "mint",
      "outputs": [],
      "stateMutability": "nonpayable",
      "type": "function"
    },
    {
      "inputs": [],
      "name": "minter",
      "outputs": [
        {
          "internalType": "address",
          "name": "",
          "type": "address"
        }
      ],
      "stateMutability": "view",
      "type": "function"
    },
    {
      "inputs": [],
      "name": "name",
      "outputs": [
        {
          "internalType": "string",
          "name": "",
          "type": "string"
        }
      ],
      "stateMutability": "view",
      "type": "function"
    },
    {
      "inputs": [],
      "name": "owner",
      "outputs": [
        {
          "internalType": "address",
          "name": "",
          "type": "address"
        }
      ],
      "stateMutability": "view",
      "type": "function"
    },
    {
      "inputs": [],
      "name": "renounceOwnership",
      "outputs": [],
      "stateMutability": "nonpayable",
      "type": "function"
    },
    {
      "inputs": [
        {
          "internalType": "address",
          "name": "_minter",
          "type": "address"
        }
      ],
      "name": "setMinter",
      "outputs": [],
      "stateMutability": "nonpayable",
      "type": "function"
    },
    {
      "inputs": [],
      "name": "symbol",
      "outputs": [
        {
          "internalType": "string",
          "name": "",
          "type": "string"
        }
      ],
      "stateMutability": "view",
      "type": "function"
    },
    {
      "inputs": [],
      "name": "totalSupply",
      "outputs": [
        {
          "internalType": "uint256",
          "name": "",
          "type": "uint256"
        }
      ],
      "stateMutability": "view",
      "type": "function"
    },
    {
      "inputs": [
        {
          "internalType": "address",
          "name": "to",
          "type": "address"
        },
        {
          "internalType": "uint256",
          "name": "amount",
          "type": "uint256"
        }
      ],
      "name": "transfer",
      "outputs": [
        {
          "internalType": "bool",
          "name": "",
          "type": "bool"
        }
      ],
      "stateMutability": "nonpayable",
      "type": "function"
    },
    {
      "inputs": [
        {
          "internalType": "address",
          "name": "from",
          "type": "address"
        },
        {
          "internalType": "address",
          "name": "to",
          "type": "address"
        },
        {
          "internalType": "uint256",
          "name": "amount",
          "type": "uint256"
        }
      ],
      "name": "transferFrom",
      "outputs": [
        {
          "internalType": "bool",
          "name": "",
          "type": "bool"
        }
      ],
      "stateMutability": "nonpayable",
      "type": "function"
    },
    {
      "inputs": [
        {
          "internalType": "address",
          "name": "newOwner",
          "type": "address"
        }
      ],
      "name": "transferOwnership",
      "outputs": [],
      "stateMutability": "nonpayable",
      "type": "function"
    }
  ],
  "bytecode": "0x608060405234801561001057600080fd5b506040518060400160405280600981526020017f47616d65546f6b656e00000000000000000000000000000000000000000000008152506040518060400160405280600281526020017f4754000000000000000000000000000000000000000000000000000000000000815250816003908161008c91906103de565b50806004908161009c91906103de565b5050506100bb6100b06100c060201b60201c565b6100c860201b60201c565b6104b0565b600033905090565b6000600560009054906101000a900473ffffffffffffffffffffffffffffffffffffffff16905081600560006101000a81548173ffffffffffffffffffffffffffffffffffffffff021916908373ffffffffffffffffffffffffffffffffffffffff1602179055508173ffffffffffffffffffffffffffffffffffffffff168173ffffffffffffffffffffffffffffffffffffffff167f8be0079c531659141344cd1fd0a4f28419497f9722a3daafe3b4186f6b6457e060405160405180910390a35050565b600081519050919050565b7f4e487b7100000000000000000000000000000000000000000000000000000000600052604160045260246000fd5b7f4e487b7100000000000000000000000000000000000000000000000000000000600052602260045260246000fd5b6000600282049050600182168061020f57607f821691505b602082108103610222576102216101c8565b5b50919050565b60008190508160005260206000209050919050565b60006020601f8301049050919050565b600082821b905092915050565b60006008830261028a7fffffffffffffffffffffffffffffffffffffffffffffffffffffffffffffffff8261024d565b610294868361024d565b95508019841693508086168417925050509392505050565b6000819050919050565b6000819050919050565b60006102db6102d66102d1846102ac565b6102b6565b6102ac565b9050919050565b6000819050919050565b6102f5836102c0565b610309610301826102e2565b84845461025a565b825550505050565b600090565b61031e610311565b6103298184846102ec565b505050565b5b8181101561034d57610342600082610316565b60018101905061032f565b5050565b601f8211156103925761036381610228565b61036c8461023d565b8101602085101561037b578190505b61038f6103878561023d565b83018261032e565b50505b505050565b600082821c905092915050565b60006103b560001984600802610397565b1980831691505092915050565b60006103ce83836103a4565b9150826002028217905092915050565b6103e78261018e565b67ffffffffffffffff811115610400576103ff610199565b5b61040a82546101f7565b610415828285610351565b600060209050601f8311600181146104485760008415610436578287015190505b61044085826103c2565b8655506104a8565b601f19841661045686610228565b60005b8281101561047e57848901518255600182019150602085019450602081019050610459565b8683101561049b5784890151610497601f8916826103a4565b8355505b6001600288020188555050505b505050505050565b611bbc806104bf6000396000f3fe608060405234801561001057600080fd5b506004361061010b5760003560e01c806370a08231116100a2578063a457c2d711610071578063a457c2d7146102aa578063a9059cbb146102da578063dd62ed3e1461030a578063f2fde38b1461033a578063fca3b5aa146103565761010b565b806370a0823114610234578063715018a6146102645780638da5cb5b1461026e57806395d89b411461028c5761010b565b806323b872dd116100de57806323b872dd1461019a578063313ce567146101ca57806339509351146101e857806340c10f19146102185761010b565b806306fdde0314610110578063075461721461012e578063095ea7b31461014c57806318160ddd1461017c575b600080fd5b610118610372565b60405161012591906111c1565b60405180910390f35b610136610404565b6040516101439190611224565b60405180910390f35b610166600480360381019061016191906112a6565b61042a565b6040516101739190611301565b60405180910390f35b61018461044d565b604051610191919061132b565b60405180910390f35b6101b460048036038101906101af9190611346565b610457565b6040516101c19190611301565b60405180910390f35b6101d2610486565b6040516101df91906113b5565b60405180910390f35b61020260048036038101906101fd91906112a6565b61048f565b60405161020f9190611301565b60405180910390f35b610232600480360381019061022d91906112a6565b6104c6565b005b61024e600480360381019061024991906113d0565b6105b2565b60405161025b919061132b565b60405180910390f35b61026c6105fa565b005b61027661060e565b6040516102839190611224565b60405180910390f35b610294610638565b6040516102a191906111c1565b60405180910390f35b6102c460048036038101906102bf91906112a6565b6106ca565b6040516102d19190611301565b60405180910390f35b6102f460048036038101906102ef91906112a6565b610741565b6040516103019190611301565b60405180910390f35b610324600480360381019061031f91906113fd565b610764565b604051610331919061132b565b60405180910390f35b610354600480360381019061034f91906113d0565b6107eb565b005b610370600480360381019061036b91906113d0565b61086e565b005b6060600380546103819061146c565b80601f01602080910402602001604051908101604052809291908181526020018280546103ad9061146c565b80156103fa5780601f106103cf576101008083540402835291602001916103fa565b820191906000526020600020905b8154815290600101906020018083116103dd57829003601f168201915b5050505050905090565b600660009054906101000a900473ffffffffffffffffffffffffffffffffffffffff1681565b6000806104356109ba565b90506104428185856109c2565b600191505092915050565b6000600254905090565b6000806104626109ba565b905061046f858285610b8b565b61047a858585610c17565b60019150509392505050565b60006012905090565b60008061049a6109ba565b90506104bb8185856104ac8589610764565b6104b691906114cc565b6109c2565b600191505092915050565b600660009054906101000a900473ffffffffffffffffffffffffffffffffffffffff1673ffffffffffffffffffffffffffffffffffffffff163373ffffffffffffffffffffffffffffffffffffffff1614610556576040517f08c379a000000000000000000000000000000000000000000000000000000000815260040161054d9061154c565b60405180910390fd5b6105608282610e8d565b8173ffffffffffffffffffffffffffffffffffffffff167f30385c845b448a36257a6a1716e6ad2e1bc2cbe333cde1e69fe849ad6511adfe826040516105a6919061132b565b60405180910390a25050565b60008060008373ffffffffffffffffffffffffffffffffffffffff1673ffffffffffffffffffffffffffffffffffffffff168152602001908152602001600020549050919050565b610602610fe3565b61060c6000611061565b565b6000600560009054906101000a900473ffffffffffffffffffffffffffffffffffffffff16905090565b6060600480546106479061146c565b80601f01602080910402602001604051908101604052809291908181526020018280546106739061146c565b80156106c05780601f10610695576101008083540402835291602001916106c0565b820191906000526020600020905b8154815290600101906020018083116106a357829003601f168201915b5050505050905090565b6000806106d56109ba565b905060006106e38286610764565b905083811015610728576040517f08c379a000000000000000000000000000000000000000000000000000000000815260040161071f906115de565b60405180910390fd5b61073582868684036109c2565b60019250505092915050565b60008061074c6109ba565b9050610759818585610c17565b600191505092915050565b6000600160008473ffffffffffffffffffffffffffffffffffffffff1673ffffffffffffffffffffffffffffffffffffffff16815260200190815260200160002060008373ffffffffffffffffffffffffffffffffffffffff1673ffffffffffffffffffffffffffffffffffffffff16815260200190815260200160002054905092915050565b6107f3610fe3565b600073ffffffffffffffffffffffffffffffffffffffff168173ffffffffffffffffffffffffffffffffffffffff1603610862576040517f08c379a000000000000000000000000000000000000000000000000000000000815260040161085990611670565b60405180910390fd5b61086b81611061565b50565b610876610fe3565b600073ffffffffffffffffffffffffffffffffffffffff168173ffffffffffffffffffffffffffffffffffffffff16036108e5576040517f08c379a00000000000000000000000000000000000000000000000000000000081526004016108dc906116dc565b60405180910390fd5b600073ffffffffffffffffffffffffffffffffffffffff16600660009054906101000a900473ffffffffffffffffffffffffffffffffffffffff1673ffffffffffffffffffffffffffffffffffffffff1614610976576040517f08c379a000000000000000000000000000000000000000000000000000000000815260040161096d90611748565b60405180910390fd5b80600660006101000a81548173ffffffffffffffffffffffffffffffffffffffff021916908373ffffffffffffffffffffffffffffffffffffffff16021790555050565b600033905090565b600073ffffffffffffffffffffffffffffffffffffffff168373ffffffffffffffffffffffffffffffffffffffff1603610a31576040517f08c379a0000000000000000000000000000000000000000000000000000000008152600401610a28906117da565b60405180910390fd5b600073ffffffffffffffffffffffffffffffffffffffff168273ffffffffffffffffffffffffffffffffffffffff1603610aa0576040517f08c379a0000000000000000000000000000000000000000000000000000000008152600401610a979061186c565b60405180910390fd5b80600160008573ffffffffffffffffffffffffffffffffffffffff1673ffffffffffffffffffffffffffffffffffffffff16815260200190815260200160002060008473ffffffffffffffffffffffffffffffffffffffff1673ffffffffffffffffffffffffffffffffffffffff168152602001908152602001600020819055508173ffffffffffffffffffffffffffffffffffffffff168373ffffffffffffffffffffffffffffffffffffffff167f8c5be1e5ebec7d5bd14f71427d1e84f3dd0314c0f7b2291e5b200ac8c7c3b92583604051610b7e919061132b565b60405180910390a3505050565b6000610b978484610764565b90507fffffffffffffffffffffffffffffffffffffffffffffffffffffffffffffffff8114610c115781811015610c03576040517f08c379a0000000000000000000000000000000000000000000000000000000008152600401610bfa906118d8565b60405180910390fd5b610c1084848484036109c2565b5b50505050565b600073ffffffffffffffffffffffffffffffffffffffff168373ffffffffffffffffffffffffffffffffffffffff1603610c86576040517f08c379a0000000000000000000000000000000000000000000000000000000008152600401610c7d9061196a565b60405180910390fd5b600073ffffffffffffffffffffffffffffffffffffffff168273ffffffffffffffffffffffffffffffffffffffff1603610cf5576040517f08c379a0000000000000000000000000000000000000000000000000000000008152600401610cec906119fc565b60405180910390fd5b610d00838383611127565b60008060008573ffffffffffffffffffffffffffffffffffffffff1673ffffffffffffffffffffffffffffffffffffffff16815260200190815260200160002054905081811015610d86576040517f08c379a0000000000000000000000000000000000000000000000000000000008152600401610d7d90611a8e565b60405180910390fd5b8181036000808673ffffffffffffffffffffffffffffffffffffffff1673ffffffffffffffffffffffffffffffffffffffff16815260200190815260200160002081905550816000808573ffffffffffffffffffffffffffffffffffffffff1673ffffffffffffffffffffffffffffffffffffffff168152602001908152602001600020600082825401925050819055508273ffffffffffffffffffffffffffffffffffffffff168473ffffffffffffffffffffffffffffffffffffffff167fddf252ad1be2c89b69c2b068fc378daa952ba7f163c4a11628f55a4df523b3ef84604051610e74919061132b565b60405180910390a3610e8784848461112c565b50505050565b600073ffffffffffffffffffffffffffffffffffffffff168273ffffffffffffffffffffffffffffffffffffffff1603610efc576040517f08c379a0000000000000000000000000000000000000000000000000000000008152600401610ef390611afa565b60405180910390fd5b610f0860008383611127565b8060026000828254610f1a91906114cc565b92505081905550806000808473ffffffffffffffffffffffffffffffffffffffff1673ffffffffffffffffffffffffffffffffffffffff168152602001908152602001600020600082825401925050819055508173ffffffffffffffffffffffffffffffffffffffff16600073ffffffffffffffffffffffffffffffffffffffff167fddf252ad1be2c89b69c2b068fc378daa952ba7f163c4a11628f55a4df523b3ef83604051610fcb919061132b565b60405180910390a3610fdf6000838361112c565b5050565b610feb6109ba565b73ffffffffffffffffffffffffffffffffffffffff1661100961060e565b73ffffffffffffffffffffffffffffffffffffffff161461105f576040517f08c379a000000000000000000000000000000000000000000000000000000000815260040161105690611b66565b60405180910390fd5b565b6000600560009054906101000a900473ffffffffffffffffffffffffffffffffffffffff16905081600560006101000a81548173ffffffffffffffffffffffffffffffffffffffff021916908373ffffffffffffffffffffffffffffffffffffffff1602179055508173ffffffffffffffffffffffffffffffffffffffff168173ffffffffffffffffffffffffffffffffffffffff167f8be0079c531659141344cd1fd0a4f28419497f9722a3daafe3b4186f6b6457e060405160405180910390a35050565b505050565b505050565b600081519050919050565b600082825260208201905092915050565b60005b8381101561116b578082015181840152602081019050611150565b60008484015250505050565b6000601f19601f8301169050919050565b600061119382611131565b61119d818561113c565b93506111ad81856020860161114d565b6111b681611177565b840191505092915050565b600060208201905081810360008301526111db8184611188565b905092915050565b600073ffffffffffffffffffffffffffffffffffffffff82169050919050565b600061120e826111e3565b9050919050565b61121e81611203565b82525050565b60006020820190506112396000830184611215565b92915050565b600080fd5b61124d81611203565b811461125857600080fd5b50565b60008135905061126a81611244565b92915050565b6000819050919050565b61128381611270565b811461128e57600080fd5b50565b6000813590506112a08161127a565b92915050565b600080604083850312156112bd576112bc61123f565b5b60006112cb8582860161125b565b92505060206112dc85828601611291565b9150509250929050565b60008115159050919050565b6112fb816112e6565b82525050565b600060208201905061131660008301846112f2565b92915050565b61132581611270565b82525050565b6000602082019050611340600083018461131c565b92915050565b60008060006060848603121561135f5761135e61123f565b5b600061136d8682870161125b565b935050602061137e8682870161125b565b925050604061138f86828701611291565b9150509250925092565b600060ff82169050919050565b6113af81611399565b82525050565b60006020820190506113ca60008301846113a6565b92915050565b6000602082840312156113e6576113e561123f565b5b60006113f48482850161125b565b91505092915050565b600080604083850312156114145761141361123f565b5b60006114228582860161125b565b92505060206114338582860161125b565b9150509250929050565b7f4e487b7100000000000000000000000000000000000000000000000000000000600052602260045260246000fd5b6000600282049050600182168061148457607f821691505b6020821081036114975761149661143d565b5b50919050565b7f4e487b7100000000000000000000000000000000000000000000000000000000600052601160045260246000fd5b60006114d782611270565b91506114e283611270565b92508282019050808211156114fa576114f961149d565b5b92915050565b7f47616d65546f6b656e3a206f6e6c79206d696e74657200000000000000000000600082015250565b600061153660168361113c565b915061154182611500565b602082019050919050565b6000602082019050818103600083015261156581611529565b9050919050565b7f45524332303a2064656372656173656420616c6c6f77616e63652062656c6f7760008201527f207a65726f000000000000000000000000000000000000000000000000000000602082015250565b60006115c860258361113c565b91506115d38261156c565b604082019050919050565b600060208201905081810360008301526115f7816115bb565b9050919050565b7f4f776e61626c653a206e6577206f776e657220697320746865207a65726f206160008201527f6464726573730000000000000000000000000000000000000000000000000000602082015250565b600061165a60268361113c565b9150611665826115fe565b604082019050919050565b600060208201905081810360008301526116898161164d565b9050919050565b7f47616d65546f6b656e3a207a65726f206d696e74657200000000000000000000600082015250565b60006116c660168361113c565b91506116d182611690565b602082019050919050565b600060208201905081810360008301526116f5816116b9565b9050919050565b7f47616d65546f6b656e3a206d696e74657220616c726561647920736574000000600082015250565b6000611732601d8361113c565b915061173d826116fc565b602082019050919050565b6000602082019050818103600083015261176181611725565b9050919050565b7f45524332303a20617070726f76652066726f6d20746865207a65726f2061646460008201527f7265737300000000000000000000000000000000000000000000000000000000602082015250565b60006117c460248361113c565b91506117cf82611768565b604082019050919050565b600060208201905081810360008301526117f3816117b7565b9050919050565b7f45524332303a20617070726f766520746f20746865207a65726f20616464726560008201527f7373000000000000000000000000000000000000000000000000000000000000602082015250565b600061185660228361113c565b9150611861826117fa565b604082019050919050565b6000602082019050818103600083015261188581611849565b9050919050565b7f45524332303a20696e73756666696369656e7420616c6c6f77616e6365000000600082015250565b60006118c2601d8361113c565b91506118cd8261188c565b602082019050919050565b600060208201905081810360008301526118f1816118b5565b9050919050565b7f45524332303a207472616e736665722066726f6d20746865207a65726f20616460008201527f6472657373000000000000000000000000000000000000000000000000000000602082015250565b600061195460258361113c565b915061195f826118f8565b604082019050919050565b6000602082019050818103600083015261198381611947565b9050919050565b7f45524332303a207472616e7366657220746f20746865207a65726f206164647260008201527f6573730000000000000000000000000000000000000000000000000000000000602082015250565b60006119e660238361113c565b91506119f18261198a565b604082019050919050565b60006020820190508181036000830152611a15816119d9565b9050919050565b7f45524332303a207472616e7366657220616d6f756e742065786365656473206260008201527f616c616e63650000000000000000000000000000000000000000000000000000602082015250565b6000611a7860268361113c565b9150611a8382611a1c565b604082019050919050565b60006020820190508181036000830152611aa781611a6b565b9050919050565b7f45524332303a206d696e7420746f20746865207a65726f206164647265737300600082015250565b6000611ae4601f8361113c565b9150611aef82611aae565b602082019050919050565b60006020820190508181036000830152611b1381611ad7565b9050919050565b7f4f776e61626c653a2063616c6c6572206973206e6f7420746865206f776e6572600082015250565b6000611b5060208361113c565b9150611b5b82611b1a565b602082019050919050565b60006020820190508181036000830152611b7f81611b43565b905091905056fea26469706673582212201f4a89646d2b5fef5251c2988d302ef2030112423adcc46f69960aa45589293a64736f6c634300081c0033",
  "linkReferences": {},
  "deployedLinkReferences": {}
}