{
  "_format": "hh-sol-artifact-1",
  "contractName": "PlayGame",
  "sourceName": "contracts/PlayGame.sol",
  "abi": [
    {
      "inputs": [
        {
          "internalType": "address",
          "name": "_gameToken",
          "type": "address"
        }
      ],
      "stateMutability": "nonpayable",
      "type": "constructor"
    },
    {
      "anonymous": false,
      "inputs": [
        {
          "indexed": true,
          "internalType": "bytes32",
          "name": "matchId",
          "type": "bytes32"
        },
        {
          "indexed": true,
          "internalType": "address",
          "name": "p1",
          "type": "address"
        },
        {
          "indexed": true,
          "internalType": "address",
          "name": "p2",
          "type": "address"
        },
        {
          "indexed": false,
          "internalType": "uint256",
          "name": "stake",
          "type": "uint256"
        }
      ],
      "name": "MatchCreated",
      "type": "event"
    },
    {
      "anonymous": false,
      "inputs": [
        {
          "indexed": true,
          "internalType": "address",
          "name": "previousOwner",
          "type": "address"
        },
        {
          "indexed": true,
          "internalType": "address",
          "name": "newOwner",
          "type": "address"
        }
      ],
      "name": "OwnershipTransferred",
      "type": "event"
    },
    {
      "anonymous": false,
      "inputs": [
        {
          "indexed": true,
          "internalType": "bytes32",
          "name": "matchId",
          "type": "bytes32"
        }
      ],
      "name": "Refunded",
      "type": "event"
    },
    {
      "anonymous": false,
      "inputs": [
        {
          "indexed": true,
          "internalType": "bytes32",
          "name": "matchId",
          "type": "bytes32"
        },
        {
          "indexed": true,
          "internalType": "address",
          "name": "winner",
          "type": "address"
        },
        {
          "indexed": false,
          "internalType": "uint256",
          "name": "amount",
          "type": "uint256"
        }
      ],
      "name": "Settled",
      "type": "event"
    },
    {
      "anonymous": false,
      "inputs": [
        {
          "indexed": true,
          "internalType": "bytes32",
          "name": "matchId",
          "type": "bytes32"
        },
        {
          "indexed": true,
          "internalType": "address",
          "name": "player",
          "type": "address"
        }
      ],
      "name": "Staked",
      "type": "event"
    },
    {
      "inputs": [
        {
          "internalType": "bytes32",
          "name": "matchId",
          "type": "bytes32"
        },
        {
          "internalType": "address",
          "name": "winner",
          "type": "address"
        }
      ],
      "name": "commitResult",
      "outputs": [],
      "stateMutability": "nonpayable",
      "type": "function"
    },
    {
      "inputs": [
        {
          "internalType": "bytes32",
          "name": "matchId",
          "type": "bytes32"
        },
        {
          "internalType": "address",
          "name": "p1",
          "type": "address"
        },
        {
          "internalType": "address",
          "name": "p2",
          "type": "address"
        },
        {
          "internalType": "uint256",
          "name": "stake",
          "type": "uint256"
        }
      ],
      "name": "createMatch",
      "outputs": [],
      "stateMutability": "nonpayable",
      "type": "function"
    },
    {
      "inputs": [],
      "name": "gameToken",
      "outputs": [
        {
          "internalType": "contract IERC20",
          "name": "",
          "type": "address"
        }
      ],
      "stateMutability": "view",
      "type": "function"
    },
    {
      "inputs": [
        {
          "internalType": "bytes32",
          "name": "",
          "type": "bytes32"
        }
      ],
      "name": "matches",
      "outputs": [
        {
          "internalType": "bytes32",
          "name": "matchId",
          "type": "bytes32"
        },
        {
          "internalType": "address",
          "name": "p1",
          "type": "address"
        },
        {
          "internalType": "address",
          "name": "p2",
          "type": "address"
        },
        {
          "internalType": "uint256",
          "name": "stake",
          "type": "uint256"
        },
        {
          "internalType": "bool",
          "name": "p1Staked",
          "type": "bool"
        },
        {
          "internalType": "bool",
          "name": "p2Staked",
          "type": "bool"
        },
        {
          "internalType": "uint256",
          "name": "createdAt",
          "type": "uint256"
        },
        {
          "internalType": "uint256",
          "name": "startTime",
          "type": "uint256"
        },
        {
          "internalType": "enum PlayGame.Status",
          "name": "status",
          "type": "uint8"
        }
      ],
      "stateMutability": "view",
      "type": "function"
    },
    {
      "inputs": [],
      "name": "operator",
      "outputs": [
        {
          "internalType": "address",
          "name": "",
          "type": "address"
        }
      ],
      "stateMutability": "view",
      "type": "function"
    },
    {
      "inputs": [],
      "name": "owner",
      "outputs": [
        {
          "internalType": "address",
          "name": "",
          "type": "address"
        }
      ],
      "stateMutability": "view",
      "type": "function"
    },
    {
      "inputs": [
        {
          "internalType": "bytes32",
          "name": "matchId",
          "type": "bytes32"
        }
      ],
      "name": "refund",
      "outputs": [],
      "stateMutability": "nonpayable",
      "type": "function"
    },
    {
      "inputs": [],
      "name": "refundTimeout",
      "outputs": [
        {
          "internalType": "uint256",
          "name": "",
          "type": "uint256"
        }
      ],
      "stateMutability": "view",
      "type": "function"
    },
    {
      "inputs": [],
      "name": "renounceOwnership",
      "outputs": [],
      "stateMutability": "nonpayable",
      "type": "function"
    },
    {
      "inputs": [
        {
          "internalType": "address",
          "name": "_operator",
          "type": "address"
        }
      ],
      "name": "setOperator",
      "outputs": [],
      "stateMutability": "nonpayable",
      "type": "function"
    },
    {
      "inputs": [
        {
          "internalType": "uint256",
          "name": "_seconds",
          "type": "uint256"
        }
      ],
      "name": "setRefundTimeout",
      "outputs": [],
      "stateMutability": "nonpayable",
      "type": "function"
    },
    {
      "inputs": [
        {
          "internalType": "bytes32",
          "name": "matchId",
          "type": "bytes32"
        }
      ],
      "name": "stake",
      "outputs": [],
      "stateMutability": "nonpayable",
      "type": "function"
    },
    {
      "inputs": [
        {
          "internalType": "address",
          "name": "newOwner",
          "type": "address"
        }
      ],
      "name": "transferOwnership",
      "outputs": [],
      "stateMutability": "nonpayable",
      "type": "function"
    }
  ],
  "bytecode": "0x60a06040526201518060035534801561001757600080fd5b5060405161278a38038061278a83398181016040528101906100399190610237565b600160008190555061005d61005261010660201b60201c565b61010e60201b60201c565b600073ffffffffffffffffffffffffffffffffffffffff168173ffffffffffffffffffffffffffffffffffffffff16036100cc576040517f08c379a00000000000000000000000000000000000000000000000000000000081526004016100c3906102c1565b60405180910390fd5b8073ffffffffffffffffffffffffffffffffffffffff1660808173ffffffffffffffffffffffffffffffffffffffff1681525050506102e1565b600033905090565b6000600160009054906101000a900473ffffffffffffffffffffffffffffffffffffffff16905081600160006101000a81548173ffffffffffffffffffffffffffffffffffffffff021916908373ffffffffffffffffffffffffffffffffffffffff1602179055508173ffffffffffffffffffffffffffffffffffffffff168173ffffffffffffffffffffffffffffffffffffffff167f8be0079c531659141344cd1fd0a4f28419497f9722a3daafe3b4186f6b6457e060405160405180910390a35050565b600080fd5b600073ffffffffffffffffffffffffffffffffffffffff82169050919050565b6000610204826101d9565b9050919050565b610214816101f9565b811461021f57600080fd5b50565b6000815190506102318161020b565b92915050565b60006020828403121561024d5761024c6101d4565b5b600061025b84828501610222565b91505092915050565b600082825260208201905092915050565b7f506c617947616d653a207a65726f20746f6b656e000000000000000000000000600082015250565b60006102ab601483610264565b91506102b682610275565b602082019050919050565b600060208201905081810360008301526102da8161029e565b9050919050565b608051612472610318600039600081816104ae01528181610a4201528181610acd01528181610f07015261109d01526124726000f3fe608060405234801561001057600080fd5b50600436106100cf5760003560e01c80639fe9ada31161008c578063c3dfdae611610066578063c3dfdae6146101de578063cd3e06e3146101fc578063dba2678314610218578063f2fde38b14610236576100cf565b80639fe9ada31461016e578063b3ab15fb146101a6578063c0d64a87146101c2576100cf565b8063270ab7f5146100d45780633acb3700146100f0578063570ca7351461010c578063715018a61461012a5780637249fbb6146101345780638da5cb5b14610150575b600080fd5b6100ee60048036038101906100e9919061173c565b610252565b005b61010a600480360381019061010591906117b2565b61054f565b005b610114610810565b6040516101219190611828565b60405180910390f35b610132610836565b005b61014e60048036038101906101499190611843565b61084a565b005b610158610b4c565b6040516101659190611828565b60405180910390f35b61018860048036038101906101839190611843565b610b76565b60405161019d99989796959493929190611920565b60405180910390f35b6101c060048036038101906101bb91906119ad565b610c2b565b005b6101dc60048036038101906101d79190611843565b610c77565b005b6101e661109b565b6040516101f39190611a39565b60405180910390f35b61021660048036038101906102119190611a54565b6110bf565b005b6102206110d1565b60405161022d9190611a81565b60405180910390f35b610250600480360381019061024b91906119ad565b6110d7565b005b61025a61115a565b600260009054906101000a900473ffffffffffffffffffffffffffffffffffffffff1673ffffffffffffffffffffffffffffffffffffffff163373ffffffffffffffffffffffffffffffffffffffff16146102ea576040517f08c379a00000000000000000000000000000000000000000000000000000000081526004016102e190611af9565b60405180910390fd5b600060046000848152602001908152602001600020905060026004811115610315576103146118a9565b5b8160070160009054906101000a900460ff166004811115610339576103386118a9565b5b14610379576040517f08c379a000000000000000000000000000000000000000000000000000000000815260040161037090611b65565b60405180910390fd5b8060010160009054906101000a900473ffffffffffffffffffffffffffffffffffffffff1673ffffffffffffffffffffffffffffffffffffffff168273ffffffffffffffffffffffffffffffffffffffff16148061042657508060020160009054906101000a900473ffffffffffffffffffffffffffffffffffffffff1673ffffffffffffffffffffffffffffffffffffffff168273ffffffffffffffffffffffffffffffffffffffff16145b610465576040517f08c379a000000000000000000000000000000000000000000000000000000000815260040161045c90611bd1565b60405180910390fd5b60038160070160006101000a81548160ff0219169083600481111561048d5761048c6118a9565b5b02179055506000600282600301546104a59190611c20565b90506104f283827f000000000000000000000000000000000000000000000000000000000000000073ffffffffffffffffffffffffffffffffffffffff166111a99092919063ffffffff16565b8273ffffffffffffffffffffffffffffffffffffffff16847f16cfaad9ef877ffdcfedd9eae2009b4d27454094546f8fab5fbb10129037afc8836040516105399190611a81565b60405180910390a3505061054b61122f565b5050565b610557611239565b6000600481111561056b5761056a6118a9565b5b6004600086815260200190815260200160002060070160009054906101000a900460ff1660048111156105a1576105a06118a9565b5b146105e1576040517f08c379a00000000000000000000000000000000000000000000000000000000081526004016105d890611cae565b60405180910390fd5b6040518061012001604052808581526020018473ffffffffffffffffffffffffffffffffffffffff1681526020018373ffffffffffffffffffffffffffffffffffffffff1681526020018281526020016000151581526020016000151581526020014281526020016000815260200160016004811115610664576106636118a9565b5b815250600460008681526020019081526020016000206000820151816000015560208201518160010160006101000a81548173ffffffffffffffffffffffffffffffffffffffff021916908373ffffffffffffffffffffffffffffffffffffffff16021790555060408201518160020160006101000a81548173ffffffffffffffffffffffffffffffffffffffff021916908373ffffffffffffffffffffffffffffffffffffffff1602179055506060820151816003015560808201518160040160006101000a81548160ff02191690831515021790555060a08201518160040160016101000a81548160ff02191690831515021790555060c0820151816005015560e082015181600601556101008201518160070160006101000a81548160ff0219169083600481111561079c5761079b6118a9565b5b02179055509050508173ffffffffffffffffffffffffffffffffffffffff168373ffffffffffffffffffffffffffffffffffffffff16857f4becde1621d018f3c4630cadb81bbd72061cd951ebaab5e8b10d5b2fecfa49ce846040516108029190611a81565b60405180910390a450505050565b600260009054906101000a900473ffffffffffffffffffffffffffffffffffffffff1681565b61083e611239565b61084860006112b7565b565b61085261115a565b60006004600083815260200190815260200160002090506001600481111561087d5761087c6118a9565b5b8160070160009054906101000a900460ff1660048111156108a1576108a06118a9565b5b14806108e25750600260048111156108bc576108bb6118a9565b5b8160070160009054906101000a900460ff1660048111156108e0576108df6118a9565b5b145b610921576040517f08c379a000000000000000000000000000000000000000000000000000000000815260040161091890611d1a565b60405180910390fd5b600060026004811115610937576109366118a9565b5b8260070160009054906101000a900460ff16600481111561095b5761095a6118a9565b5b146109775760035482600501546109729190611d3a565b61098a565b60035482600601546109899190611d3a565b5b9050804210156109cf576040517f08c379a00000000000000000000000000000000000000000000000000000000081526004016109c690611dba565b60405180910390fd5b60048260070160006101000a81548160ff021916908360048111156109f7576109f66118a9565b5b02179055508160040160009054906101000a900460ff1615610a8757610a868260010160009054906101000a900473ffffffffffffffffffffffffffffffffffffffff1683600301547f000000000000000000000000000000000000000000000000000000000000000073ffffffffffffffffffffffffffffffffffffffff166111a99092919063ffffffff16565b5b8160040160019054906101000a900460ff1615610b1257610b118260020160009054906101000a900473ffffffffffffffffffffffffffffffffffffffff1683600301547f000000000000000000000000000000000000000000000000000000000000000073ffffffffffffffffffffffffffffffffffffffff166111a99092919063ffffffff16565b5b827ffe509803c09416b28ff3d8f690c8b0c61462a892c46d5430c8fb20abe472daf060405160405180910390a25050610b4961122f565b50565b6000600160009054906101000a900473ffffffffffffffffffffffffffffffffffffffff16905090565b60046020528060005260406000206000915090508060000154908060010160009054906101000a900473ffffffffffffffffffffffffffffffffffffffff16908060020160009054906101000a900473ffffffffffffffffffffffffffffffffffffffff16908060030154908060040160009054906101000a900460ff16908060040160019054906101000a900460ff16908060050154908060060154908060070160009054906101000a900460ff16905089565b610c33611239565b80600260006101000a81548173ffffffffffffffffffffffffffffffffffffffff021916908373ffffffffffffffffffffffffffffffffffffffff16021790555050565b610c7f61115a565b600060046000838152602001908152602001600020905060016004811115610caa57610ca96118a9565b5b8160070160009054906101000a900460ff166004811115610cce57610ccd6118a9565b5b14610d0e576040517f08c379a0000000000000000000000000000000000000000000000000000000008152600401610d0590611e26565b60405180910390fd5b8060010160009054906101000a900473ffffffffffffffffffffffffffffffffffffffff1673ffffffffffffffffffffffffffffffffffffffff163373ffffffffffffffffffffffffffffffffffffffff161480610dbb57508060020160009054906101000a900473ffffffffffffffffffffffffffffffffffffffff1673ffffffffffffffffffffffffffffffffffffffff163373ffffffffffffffffffffffffffffffffffffffff16145b610dfa576040517f08c379a0000000000000000000000000000000000000000000000000000000008152600401610df190611e92565b60405180910390fd5b8060010160009054906101000a900473ffffffffffffffffffffffffffffffffffffffff1673ffffffffffffffffffffffffffffffffffffffff163373ffffffffffffffffffffffffffffffffffffffff1603610ea8578060040160009054906101000a900460ff1615610ea3576040517f08c379a0000000000000000000000000000000000000000000000000000000008152600401610e9a90611efe565b60405180910390fd5b610efb565b8060040160019054906101000a900460ff1615610efa576040517f08c379a0000000000000000000000000000000000000000000000000000000008152600401610ef190611f6a565b60405180910390fd5b5b610f4c333083600301547f000000000000000000000000000000000000000000000000000000000000000073ffffffffffffffffffffffffffffffffffffffff1661137d909392919063ffffffff16565b8060010160009054906101000a900473ffffffffffffffffffffffffffffffffffffffff1673ffffffffffffffffffffffffffffffffffffffff163373ffffffffffffffffffffffffffffffffffffffff1603610fc55760018160040160006101000a81548160ff021916908315150217905550610fe3565b60018160040160016101000a81548160ff0219169083151502179055505b3373ffffffffffffffffffffffffffffffffffffffff16827f33569fabfdaac29b9fcc05f7e8d37b389e8b2ba4379fcefefb7a8883d860b45a60405160405180910390a38060040160009054906101000a900460ff16801561105357508060040160019054906101000a900460ff165b1561108f5760028160070160006101000a81548160ff021916908360048111156110805761107f6118a9565b5b02179055504281600601819055505b5061109861122f565b50565b7f000000000000000000000000000000000000000000000000000000000000000081565b6110c7611239565b8060038190555050565b60035481565b6110df611239565b600073ffffffffffffffffffffffffffffffffffffffff168173ffffffffffffffffffffffffffffffffffffffff160361114e576040517f08c379a000000000000000000000000000000000000000000000000000000000815260040161114590611ffc565b60405180910390fd5b611157816112b7565b50565b60026000540361119f576040517f08c379a000000000000000000000000000000000000000000000000000000000815260040161119690612068565b60405180910390fd5b6002600081905550565b61122a8363a9059cbb60e01b84846040516024016111c8929190612088565b604051602081830303815290604052907bffffffffffffffffffffffffffffffffffffffffffffffffffffffff19166020820180517bffffffffffffffffffffffffffffffffffffffffffffffffffffffff8381831617835250505050611406565b505050565b6001600081905550565b6112416114ce565b73ffffffffffffffffffffffffffffffffffffffff1661125f610b4c565b73ffffffffffffffffffffffffffffffffffffffff16146112b5576040517f08c379a00000000000000000000000000000000000000000000000000000000081526004016112ac906120fd565b60405180910390fd5b565b6000600160009054906101000a900473ffffffffffffffffffffffffffffffffffffffff16905081600160006101000a81548173ffffffffffffffffffffffffffffffffffffffff021916908373ffffffffffffffffffffffffffffffffffffffff1602179055508173ffffffffffffffffffffffffffffffffffffffff168173ffffffffffffffffffffffffffffffffffffffff167f8be0079c531659141344cd1fd0a4f28419497f9722a3daafe3b4186f6b6457e060405160405180910390a35050565b611400846323b872dd60e01b85858560405160240161139e9392919061211d565b604051602081830303815290604052907bffffffffffffffffffffffffffffffffffffffffffffffffffffffff19166020820180517bffffffffffffffffffffffffffffffffffffffffffffffffffffffff8381831617835250505050611406565b50505050565b6000611468826040518060400160405280602081526020017f5361666545524332303a206c6f772d6c6576656c2063616c6c206661696c65648152508573ffffffffffffffffffffffffffffffffffffffff166114d69092919063ffffffff16565b905060008151148061148a5750808060200190518101906114899190612180565b5b6114c9576040517f08c379a00000000000000000000000000000000000000000000000000000000081526004016114c09061221f565b60405180910390fd5b505050565b600033905090565b60606114e584846000856114ee565b90509392505050565b606082471015611533576040517f08c379a000000000000000000000000000000000000000000000000000000000815260040161152a906122b1565b60405180910390fd5b6000808673ffffffffffffffffffffffffffffffffffffffff16858760405161155c9190612342565b60006040518083038185875af1925050503d8060008114611599576040519150601f19603f3d011682016040523d82523d6000602084013e61159e565b606091505b50915091506115af878383876115bb565b92505050949350505050565b6060831561161d576000835103611615576115d585611630565b611614576040517f08c379a000000000000000000000000000000000000000000000000000000000815260040161160b906123a5565b60405180910390fd5b5b829050611628565b6116278383611653565b5b949350505050565b6000808273ffffffffffffffffffffffffffffffffffffffff163b119050919050565b6000825111156116665781518083602001fd5b806040517f08c379a000000000000000000000000000000000000000000000000000000000815260040161169a919061241a565b60405180910390fd5b600080fd5b6000819050919050565b6116bb816116a8565b81146116c657600080fd5b50565b6000813590506116d8816116b2565b92915050565b600073ffffffffffffffffffffffffffffffffffffffff82169050919050565b6000611709826116de565b9050919050565b611719816116fe565b811461172457600080fd5b50565b60008135905061173681611710565b92915050565b60008060408385031215611753576117526116a3565b5b6000611761858286016116c9565b925050602061177285828601611727565b9150509250929050565b6000819050919050565b61178f8161177c565b811461179a57600080fd5b50565b6000813590506117ac81611786565b92915050565b600080600080608085870312156117cc576117cb6116a3565b5b60006117da878288016116c9565b94505060206117eb87828801611727565b93505060406117fc87828801611727565b925050606061180d8782880161179d565b91505092959194509250565b611822816116fe565b82525050565b600060208201905061183d6000830184611819565b92915050565b600060208284031215611859576118586116a3565b5b6000611867848285016116c9565b91505092915050565b611879816116a8565b82525050565b6118888161177c565b82525050565b60008115159050919050565b6118a38161188e565b82525050565b7f4e487b7100000000000000000000000000000000000000000000000000000000600052602160045260246000fd5b600581106118e9576118e86118a9565b5b50565b60008190506118fa826118d8565b919050565b600061190a826118ec565b9050919050565b61191a816118ff565b82525050565b600061012082019050611936600083018c611870565b611943602083018b611819565b611950604083018a611819565b61195d606083018961187f565b61196a608083018861189a565b61197760a083018761189a565b61198460c083018661187f565b61199160e083018561187f565b61199f610100830184611911565b9a9950505050505050505050565b6000602082840312156119c3576119c26116a3565b5b60006119d184828501611727565b91505092915050565b6000819050919050565b60006119ff6119fa6119f5846116de565b6119da565b6116de565b9050919050565b6000611a11826119e4565b9050919050565b6000611a2382611a06565b9050919050565b611a3381611a18565b82525050565b6000602082019050611a4e6000830184611a2a565b92915050565b600060208284031215611a6a57611a696116a3565b5b6000611a788482850161179d565b91505092915050565b6000602082019050611a96600083018461187f565b92915050565b600082825260208201905092915050565b7f506c617947616d653a206f6e6c79206f70657261746f72000000000000000000600082015250565b6000611ae3601783611a9c565b9150611aee82611aad565b602082019050919050565b60006020820190508181036000830152611b1281611ad6565b9050919050565b7f506c617947616d653a206e6f74207374616b6564000000000000000000000000600082015250565b6000611b4f601483611a9c565b9150611b5a82611b19565b602082019050919050565b60006020820190508181036000830152611b7e81611b42565b9050919050565b7f506c617947616d653a20696e76616c69642077696e6e65720000000000000000600082015250565b6000611bbb601883611a9c565b9150611bc682611b85565b602082019050919050565b60006020820190508181036000830152611bea81611bae565b9050919050565b7f4e487b7100000000000000000000000000000000000000000000000000000000600052601160045260246000fd5b6000611c2b8261177c565b9150611c368361177c565b9250828202611c448161177c565b91508282048414831517611c5b57611c5a611bf1565b5b5092915050565b7f506c617947616d653a206d617463682065786973747300000000000000000000600082015250565b6000611c98601683611a9c565b9150611ca382611c62565b602082019050919050565b60006020820190508181036000830152611cc781611c8b565b9050919050565b7f506c617947616d653a2063616e6e6f7420726566756e64000000000000000000600082015250565b6000611d04601783611a9c565b9150611d0f82611cce565b602082019050919050565b60006020820190508181036000830152611d3381611cf7565b9050919050565b6000611d458261177c565b9150611d508361177c565b9250828201905080821115611d6857611d67611bf1565b5b92915050565b7f506c617947616d653a2074696d656f7574206e6f742072656163686564000000600082015250565b6000611da4601d83611a9c565b9150611daf82611d6e565b602082019050919050565b60006020820190508181036000830152611dd381611d97565b9050919050565b7f506c617947616d653a206e6f74206f70656e20666f72207374616b696e670000600082015250565b6000611e10601e83611a9c565b9150611e1b82611dda565b602082019050919050565b60006020820190508181036000830152611e3f81611e03565b9050919050565b7f506c617947616d653a206e6f74206120706c6179657200000000000000000000600082015250565b6000611e7c601683611a9c565b9150611e8782611e46565b602082019050919050565b60006020820190508181036000830152611eab81611e6f565b9050919050565b7f506c617947616d653a20703120616c7265616479207374616b65640000000000600082015250565b6000611ee8601b83611a9c565b9150611ef382611eb2565b602082019050919050565b60006020820190508181036000830152611f1781611edb565b9050919050565b7f506c617947616d653a20703220616c7265616479207374616b65640000000000600082015250565b6000611f54601b83611a9c565b9150611f5f82611f1e565b602082019050919050565b60006020820190508181036000830152611f8381611f47565b9050919050565b7f4f776e61626c653a206e6577206f776e657220697320746865207a65726f206160008201527f6464726573730000000000000000000000000000000000000000000000000000602082015250565b6000611fe6602683611a9c565b9150611ff182611f8a565b604082019050919050565b6000602082019050818103600083015261201581611fd9565b9050919050565b7f5265656e7472616e637947756172643a207265656e7472616e742063616c6c00600082015250565b6000612052601f83611a9c565b915061205d8261201c565b602082019050919050565b6000602082019050818103600083015261208181612045565b9050919050565b600060408201905061209d6000830185611819565b6120aa602083018461187f565b9392505050565b7f4f776e61626c653a2063616c6c6572206973206e6f7420746865206f776e6572600082015250565b60006120e7602083611a9c565b91506120f2826120b1565b602082019050919050565b60006020820190508181036000830152612116816120da565b9050919050565b60006060820190506121326000830186611819565b61213f6020830185611819565b61214c604083018461187f565b949350505050565b61215d8161188e565b811461216857600080fd5b50565b60008151905061217a81612154565b92915050565b600060208284031215612196576121956116a3565b5b60006121a48482850161216b565b91505092915050565b7f5361666545524332303a204552433230206f7065726174696f6e20646964206e60008201527f6f74207375636365656400000000000000000000000000000000000000000000602082015250565b6000612209602a83611a9c565b9150612214826121ad565b604082019050919050565b60006020820190508181036000830152612238816121fc565b9050919050565b7f416464726573733a20696e73756666696369656e742062616c616e636520666f60008201527f722063616c6c0000000000000000000000000000000000000000000000000000602082015250565b600061229b602683611a9c565b91506122a68261223f565b604082019050919050565b600060208201905081810360008301526122ca8161228e565b9050919050565b600081519050919050565b600081905092915050565b60005b838110156123055780820151818401526020810190506122ea565b60008484015250505050565b600061231c826122d1565b61232681856122dc565b93506123368185602086016122e7565b80840191505092915050565b600061234e8284612311565b915081905092915050565b7f416464726573733a2063616c6c20746f206e6f6e2d636f6e7472616374000000600082015250565b600061238f601d83611a9c565b915061239a82612359565b602082019050919050565b600060208201905081810360008301526123be81612382565b9050919050565b600081519050919050565b6000601f19601f8301169050919050565b60006123ec826123c5565b6123f68185611a9c565b93506124068185602086016122e7565b61240f816123d0565b840191505092915050565b6000602082019050818103600083015261243481846123e1565b90509291505056fea2646970667358221220ad7bb7ac5718c239411fde671778bcd33d9491d7c28485e22e9c1a795724824364736f6c634300081c0033",
  "linkReferences": {},
  "deployedLinkReferences": {}
}