{
  "_format": "hh-sol-artifact-1",
  "contractName": "TokenStore",
  "sourceName": "contracts/TokenStore.sol",
  "abi": [
    {
      "inputs": [
        {
          "internalType": "address",
          "name": "_usdt",
          "type": "address"
        },
        {
          "internalType": "address",
          "name": "_gameToken",
          "type": "address"
        },
        {
          "internalType": "uint256",
          "name": "_gtPerUsdt",
          "type": "uint256"
        }
      ],
      "stateMutability": "nonpayable",
      "type": "constructor"
    },
    {
      "anonymous": false,
      "inputs": [
        {
          "indexed": true,
          "internalType": "address",
          "name": "previousOwner",
          "type": "address"
        },
        {
          "indexed": true,
          "internalType": "address",
          "name": "newOwner",
          "type": "address"
        }
      ],
      "name": "OwnershipTransferred",
      "type": "event"
    },
    {
      "anonymous": false,
      "inputs": [
        {
          "indexed": true,
          "internalType": "address",
          "name": "buyer",
          "type": "address"
        },
        {
          "indexed": false,
          "internalType": "uint256",
          "name": "usdtAmount",
          "type": "uint256"
        },
        {
          "indexed": false,
          "internalType": "uint256",
          "name": "gtOut",
          "type": "uint256"
        }
      ],
      "name": "Purchase",
      "type": "event"
    },
    {
      "inputs": [
        {
          "internalType": "uint256",
          "name": "usdtAmount",
          "type": "uint256"
        }
      ],
      "name": "buy",
      "outputs": [],
      "stateMutability": "nonpayable",
      "type": "function"
    },
    {
      "inputs": [],
      "name": "gameToken",
      "outputs": [
        {
          "internalType": "contract GameToken",
          "name": "",
          "type": "address"
        }
      ],
      "stateMutability": "view",
      "type": "function"
    },
    {
      "inputs": [],
      "name": "gtPerUsdt",
      "outputs": [
        {
          "internalType": "uint256",
          "name": "",
          "type": "uint256"
        }
      ],
      "stateMutability": "view",
      "type": "function"
    },
    {
      "inputs": [],
      "name": "owner",
      "outputs": [
        {
          "internalType": "address",
          "name": "",
          "type": "address"
        }
      ],
      "stateMutability": "view",
      "type": "function"
    },
    {
      "inputs": [],
      "name": "renounceOwnership",
      "outputs": [],
      "stateMutability": "nonpayable",
      "type": "function"
    },
    {
      "inputs": [
        {
          "internalType": "uint256",
          "name": "_gtPerUsdt",
          "type": "uint256"
        }
      ],
      "name": "setRate",
      "outputs": [],
      "stateMutability": "nonpayable",
      "type": "function"
    },
    {
      "inputs": [
        {
          "internalType": "address",
          "name": "newOwner",
          "type": "address"
        }
      ],
      "name": "transferOwnership",
      "outputs": [],
      "stateMutability": "nonpayable",
      "type": "function"
    },
    {
      "inputs": [],
      "name": "usdt",
      "outputs": [
        {
          "internalType": "contract IERC20",
          "name": "",
          "type": "address"
        }
      ],
      "stateMutability": "view",
      "type": "function"
    },
    {
      "inputs": [],
      "name": "usdtDecimals",
      "outputs": [
        {
          "internalType": "uint8",
          "name": "",
          "type": "uint8"
        }
      ],
      "stateMutability": "view",
      "type": "function"
    },
    {
      "inputs": [
        {
          "internalType": "address",
          "name": "to",
          "type": "address"
        },
        {
          "internalType": "uint256",
          "name": "amount",
          "type": "uint256"
        }
      ],
      "name": "withdrawUSDT",
      "outputs": [],
      "stateMutability": "nonpayable",
      "type": "function"
    }
  ],
  "bytecode": "0x60c060405234801561001057600080fd5b5060405161197c38038061197c83398181016040528101906100329190610366565b600160008190555061005661004b6101ff60201b60201c565b61020760201b60201c565b600073ffffffffffffffffffffffffffffffffffffffff168373ffffffffffffffffffffffffffffffffffffffff16141580156100c05750600073ffffffffffffffffffffffffffffffffffffffff168273ffffffffffffffffffffffffffffffffffffffff1614155b6100ff576040517f08c379a00000000000000000000000000000000000000000000000000000000081526004016100f690610416565b60405180910390fd5b8273ffffffffffffffffffffffffffffffffffffffff1660808173ffffffffffffffffffffffffffffffffffffffff16815250508273ffffffffffffffffffffffffffffffffffffffff1663313ce5676040518163ffffffff1660e01b8152600401602060405180830381865afa15801561017e573d6000803e3d6000fd5b505050506040513d601f19601f820116820180604052508101906101a2919061046f565b600360006101000a81548160ff021916908360ff1602179055508173ffffffffffffffffffffffffffffffffffffffff1660a08173ffffffffffffffffffffffffffffffffffffffff16815250508060028190555050505061049c565b600033905090565b6000600160009054906101000a900473ffffffffffffffffffffffffffffffffffffffff16905081600160006101000a81548173ffffffffffffffffffffffffffffffffffffffff021916908373ffffffffffffffffffffffffffffffffffffffff1602179055508173ffffffffffffffffffffffffffffffffffffffff168173ffffffffffffffffffffffffffffffffffffffff167f8be0079c531659141344cd1fd0a4f28419497f9722a3daafe3b4186f6b6457e060405160405180910390a35050565b600080fd5b600073ffffffffffffffffffffffffffffffffffffffff82169050919050565b60006102fd826102d2565b9050919050565b61030d816102f2565b811461031857600080fd5b50565b60008151905061032a81610304565b92915050565b6000819050919050565b61034381610330565b811461034e57600080fd5b50565b6000815190506103608161033a565b92915050565b60008060006060848603121561037f5761037e6102cd565b5b600061038d8682870161031b565b935050602061039e8682870161031b565b92505060406103af86828701610351565b9150509250925092565b600082825260208201905092915050565b7f546f6b656e53746f72653a207a65726f20616464720000000000000000000000600082015250565b60006104006015836103b9565b915061040b826103ca565b602082019050919050565b6000602082019050818103600083015261042f816103f3565b9050919050565b600060ff82169050919050565b61044c81610436565b811461045757600080fd5b50565b60008151905061046981610443565b92915050565b600060208284031215610485576104846102cd565b5b60006104938482850161045a565b91505092915050565b60805160a0516114a66104d660003960008181610293015261038f0152600081816101c20152818161020c015261034801526114a66000f3fe608060405234801561001057600080fd5b506004361061009e5760003560e01c80638da5cb5b116100665780638da5cb5b14610121578063c3dfdae61461013f578063d96a094a1461015d578063f2fde38b14610179578063f5243bfd146101955761009e565b80631481794e146100a35780632f48ab7d146100bf57806334fcf437146100dd578063715018a6146100f957806382543b3214610103575b600080fd5b6100bd60048036038101906100b89190610ae2565b6101b3565b005b6100c761020a565b6040516100d49190610b81565b60405180910390f35b6100f760048036038101906100f29190610b9c565b61022e565b005b610101610240565b005b61010b610254565b6040516101189190610be5565b60405180910390f35b610129610267565b6040516101369190610c0f565b60405180910390f35b610147610291565b6040516101549190610c4b565b60405180910390f35b61017760048036038101906101729190610b9c565b6102b5565b005b610193600480360381019061018e9190610c66565b610477565b005b61019d6104fa565b6040516101aa9190610ca2565b60405180910390f35b6101bb610500565b61020682827f000000000000000000000000000000000000000000000000000000000000000073ffffffffffffffffffffffffffffffffffffffff1661057e9092919063ffffffff16565b5050565b7f000000000000000000000000000000000000000000000000000000000000000081565b610236610500565b8060028190555050565b610248610500565b6102526000610604565b565b600360009054906101000a900460ff1681565b6000600160009054906101000a900473ffffffffffffffffffffffffffffffffffffffff16905090565b7f000000000000000000000000000000000000000000000000000000000000000081565b6102bd6106ca565b60008111610300576040517f08c379a00000000000000000000000000000000000000000000000000000000081526004016102f790610d1a565b60405180910390fd5b6000600360009054906101000a900460ff1660ff16600a6103219190610e9c565b9050600081600254846103349190610ee7565b61033e9190610f58565b905061038d3330857f000000000000000000000000000000000000000000000000000000000000000073ffffffffffffffffffffffffffffffffffffffff16610719909392919063ffffffff16565b7f000000000000000000000000000000000000000000000000000000000000000073ffffffffffffffffffffffffffffffffffffffff166340c10f1933836040518363ffffffff1660e01b81526004016103e8929190610f89565b600060405180830381600087803b15801561040257600080fd5b505af1158015610416573d6000803e3d6000fd5b505050503373ffffffffffffffffffffffffffffffffffffffff167f12cb4648cf3058b17ceeb33e579f8b0bc269fe0843f3900b8e24b6c54871703c8483604051610462929190610fb2565b60405180910390a250506104746107a2565b50565b61047f610500565b600073ffffffffffffffffffffffffffffffffffffffff168173ffffffffffffffffffffffffffffffffffffffff16036104ee576040517f08c379a00000000000000000000000000000000000000000000000000000000081526004016104e59061104d565b60405180910390fd5b6104f781610604565b50565b60025481565b6105086107ac565b73ffffffffffffffffffffffffffffffffffffffff16610526610267565b73ffffffffffffffffffffffffffffffffffffffff161461057c576040517f08c379a0000000000000000000000000000000000000000000000000000000008152600401610573906110b9565b60405180910390fd5b565b6105ff8363a9059cbb60e01b848460405160240161059d929190610f89565b604051602081830303815290604052907bffffffffffffffffffffffffffffffffffffffffffffffffffffffff19166020820180517bffffffffffffffffffffffffffffffffffffffffffffffffffffffff83818316178352505050506107b4565b505050565b6000600160009054906101000a900473ffffffffffffffffffffffffffffffffffffffff16905081600160006101000a81548173ffffffffffffffffffffffffffffffffffffffff021916908373ffffffffffffffffffffffffffffffffffffffff1602179055508173ffffffffffffffffffffffffffffffffffffffff168173ffffffffffffffffffffffffffffffffffffffff167f8be0079c531659141344cd1fd0a4f28419497f9722a3daafe3b4186f6b6457e060405160405180910390a35050565b60026000540361070f576040517f08c379a000000000000000000000000000000000000000000000000000000000815260040161070690611125565b60405180910390fd5b6002600081905550565b61079c846323b872dd60e01b85858560405160240161073a93929190611145565b604051602081830303815290604052907bffffffffffffffffffffffffffffffffffffffffffffffffffffffff19166020820180517bffffffffffffffffffffffffffffffffffffffffffffffffffffffff83818316178352505050506107b4565b50505050565b6001600081905550565b600033905090565b6000610816826040518060400160405280602081526020017f5361666545524332303a206c6f772d6c6576656c2063616c6c206661696c65648152508573ffffffffffffffffffffffffffffffffffffffff1661087c9092919063ffffffff16565b905060008151148061083857508080602001905181019061083791906111b4565b5b610877576040517f08c379a000000000000000000000000000000000000000000000000000000000815260040161086e90611253565b60405180910390fd5b505050565b606061088b8484600085610894565b90509392505050565b6060824710156108d9576040517f08c379a00000000000000000000000000000000000000000000000000000000081526004016108d0906112e5565b60405180910390fd5b6000808673ffffffffffffffffffffffffffffffffffffffff1685876040516109029190611376565b60006040518083038185875af1925050503d806000811461093f576040519150601f19603f3d011682016040523d82523d6000602084013e610944565b606091505b509150915061095587838387610961565b92505050949350505050565b606083156109c35760008351036109bb5761097b856109d6565b6109ba576040517f08c379a00000000000000000000000000000000000000000000000000000000081526004016109b1906113d9565b60405180910390fd5b5b8290506109ce565b6109cd83836109f9565b5b949350505050565b6000808273ffffffffffffffffffffffffffffffffffffffff163b119050919050565b600082511115610a0c5781518083602001fd5b806040517f08c379a0000000000000000000000000000000000000000000000000000000008152600401610a40919061144e565b60405180910390fd5b600080fd5b600073ffffffffffffffffffffffffffffffffffffffff82169050919050565b6000610a7982610a4e565b9050919050565b610a8981610a6e565b8114610a9457600080fd5b50565b600081359050610aa681610a80565b92915050565b6000819050919050565b610abf81610aac565b8114610aca57600080fd5b50565b600081359050610adc81610ab6565b92915050565b60008060408385031215610af957610af8610a49565b5b6000610b0785828601610a97565b9250506020610b1885828601610acd565b9150509250929050565b6000819050919050565b6000610b47610b42610b3d84610a4e565b610b22565b610a4e565b9050919050565b6000610b5982610b2c565b9050919050565b6000610b6b82610b4e565b9050919050565b610b7b81610b60565b82525050565b6000602082019050610b966000830184610b72565b92915050565b600060208284031215610bb257610bb1610a49565b5b6000610bc084828501610acd565b91505092915050565b600060ff82169050919050565b610bdf81610bc9565b82525050565b6000602082019050610bfa6000830184610bd6565b92915050565b610c0981610a6e565b82525050565b6000602082019050610c246000830184610c00565b92915050565b6000610c3582610b4e565b9050919050565b610c4581610c2a565b82525050565b6000602082019050610c606000830184610c3c565b92915050565b600060208284031215610c7c57610c7b610a49565b5b6000610c8a84828501610a97565b91505092915050565b610c9c81610aac565b82525050565b6000602082019050610cb76000830184610c93565b92915050565b600082825260208201905092915050565b7f546f6b656e53746f72653a207a65726f20616d6f756e74000000000000000000600082015250565b6000610d04601783610cbd565b9150610d0f82610cce565b602082019050919050565b60006020820190508181036000830152610d3381610cf7565b9050919050565b7f4e487b7100000000000000000000000000000000000000000000000000000000600052601160045260246000fd5b60008160011c9050919050565b6000808291508390505b6001851115610dc057808604811115610d9c57610d9b610d3a565b5b6001851615610dab5780820291505b8081029050610db985610d69565b9450610d80565b94509492505050565b600082610dd95760019050610e95565b81610de75760009050610e95565b8160018114610dfd5760028114610e0757610e36565b6001915050610e95565b60ff841115610e1957610e18610d3a565b5b8360020a915084821115610e3057610e2f610d3a565b5b50610e95565b5060208310610133831016604e8410600b8410161715610e6b5782820a905083811115610e6657610e65610d3a565b5b610e95565b610e788484846001610d76565b92509050818404811115610e8f57610e8e610d3a565b5b81810290505b9392505050565b6000610ea782610aac565b9150610eb283610aac565b9250610edf7fffffffffffffffffffffffffffffffffffffffffffffffffffffffffffffffff8484610dc9565b905092915050565b6000610ef282610aac565b9150610efd83610aac565b9250828202610f0b81610aac565b91508282048414831517610f2257610f21610d3a565b5b5092915050565b7f4e487b7100000000000000000000000000000000000000000000000000000000600052601260045260246000fd5b6000610f6382610aac565b9150610f6e83610aac565b925082610f7e57610f7d610f29565b5b828204905092915050565b6000604082019050610f9e6000830185610c00565b610fab6020830184610c93565b9392505050565b6000604082019050610fc76000830185610c93565b610fd46020830184610c93565b9392505050565b7f4f776e61626c653a206e6577206f776e657220697320746865207a65726f206160008201527f6464726573730000000000000000000000000000000000000000000000000000602082015250565b6000611037602683610cbd565b915061104282610fdb565b604082019050919050565b600060208201905081810360008301526110668161102a565b9050919050565b7f4f776e61626c653a2063616c6c6572206973206e6f7420746865206f776e6572600082015250565b60006110a3602083610cbd565b91506110ae8261106d565b602082019050919050565b600060208201905081810360008301526110d281611096565b9050919050565b7f5265656e7472616e637947756172643a207265656e7472616e742063616c6c00600082015250565b600061110f601f83610cbd565b915061111a826110d9565b602082019050919050565b6000602082019050818103600083015261113e81611102565b9050919050565b600060608201905061115a6000830186610c00565b6111676020830185610c00565b6111746040830184610c93565b949350505050565b60008115159050919050565b6111918161117c565b811461119c57600080fd5b50565b6000815190506111ae81611188565b92915050565b6000602082840312156111ca576111c9610a49565b5b60006111d88482850161119f565b91505092915050565b7f5361666545524332303a204552433230206f7065726174696f6e20646964206e60008201527f6f74207375636365656400000000000000000000000000000000000000000000602082015250565b600061123d602a83610cbd565b9150611248826111e1565b604082019050919050565b6000602082019050818103600083015261126c81611230565b9050919050565b7f416464726573733a20696e73756666696369656e742062616c616e636520666f60008201527f722063616c6c0000000000000000000000000000000000000000000000000000602082015250565b60006112cf602683610cbd565b91506112da82611273565b604082019050919050565b600060208201905081810360008301526112fe816112c2565b9050919050565b600081519050919050565b600081905092915050565b60005b8381101561133957808201518184015260208101905061131e565b60008484015250505050565b600061135082611305565b61135a8185611310565b935061136a81856020860161131b565b80840191505092915050565b60006113828284611345565b915081905092915050565b7f416464726573733a2063616c6c20746f206e6f6e2d636f6e7472616374000000600082015250565b60006113c3601d83610cbd565b91506113ce8261138d565b602082019050919050565b600060208201905081810360008301526113f2816113b6565b9050919050565b600081519050919050565b6000601f19601f8301169050919050565b6000611420826113f9565b61142a8185610cbd565b935061143a81856020860161131b565b61144381611404565b840191505092915050565b600060208201905081810360008301526114688184611415565b90509291505056fea26469706673582212204d410417bfaf0fee68f7abaafb4d6a0d3f1b5408a6a3c285d98b4e3ec2b91e2064736f6c634300081c0033",
  "linkReferences": {},
  "deployedLinkReferences": {}
}